:100000000C942A000C9447000C9447000C94470071
:100010000C9447000C9447000C9447000C94470044
:100020000C9447000C9447000C9447000C94470034
:100030000C9447000C9447000C9447000C94470024
:100040000C9447000C9447000C9447000C94470014
:100050000C94470011241FBECFE5D8E0DEBFCDBF12
:1000600010E0A0E6B0E0E8E5F6E002C005900D92F1
:10007000AE36B107D9F720E0AEE6B0E001C01D9280
:10008000A237B207E1F70E942D020C942A030C94C8
:10009000000087B1806487B986B1826086B986B175
:1000A000846086B986B1806886B9089597B1907EDC
:1000B00097B997B1892B87B986B1806486B936998B
:1000C000FECF86B1806186B984B195B1089582343E
:1000D00019F118F4813439F008958334B1F184347E
:1000E00009F44CC00895413059F42AB381E090E0FE
:1000F00002C0880F991F6A95E2F7822B8ABB089588
:100100002AB381E090E002C0880F991F6A95E2F758
:10011000809582238ABB0895413059F427B381E04A
:1001200090E002C0880F991F6A95E2F7822B87BB87
:10013000089527B381E090E002C0880F991F6A9567
:10014000E2F78095822387BB0895413059F424B3A8
:1001500081E090E002C0880F991F6A95E2F7822B38
:1001600084BB089524B381E090E002C0880F991FFA
:100170006A95E2F78095822384BB0895413059F453
:1001800021B381E090E002C0880F991F6A95E2F7E1
:10019000822B81BB089521B381E090E002C0880FDB
:1001A000991F6A95E2F78095822381BB0895823476
:1001B00019F118F4813439F008958334B1F184349D
:1001C00009F44CC00895413059F42BB381E090E01C
:1001D00002C0880F991F6A95E2F7822B8BBB0895A6
:1001E0002BB381E090E002C0880F991F6A95E2F777
:1001F000809582238BBB0895413059F428B381E068
:1002000090E002C0880F991F6A95E2F7822B88BBA5
:10021000089528B381E090E002C0880F991F6A9585
:10022000E2F78095822388BB0895413059F425B3C5
:1002300081E090E002C0880F991F6A95E2F7822B57
:1002400085BB089525B381E090E002C0880F991F17
:100250006A95E2F78095822385BB0895413059F471
:1002600022B381E090E002C0880F991F6A95E2F7FF
:10027000822B82BB089522B381E090E002C0880FF8
:10028000991F6A95E2F78095822382BB0895823494
:1002900059F018F4813431F00895833439F08434FE
:1002A00039F008956BBB089568BB089565BB089548
:1002B00062BB089541E060E082E40E94D7008FE9CC
:1002C0009FE00197F1F700C0000040E060E082E4A9
:1002D0000E94D7008FE99FE00197F1F700C000006E
:1002E0000895682F84E40E94470140E061E082E4C1
:1002F0000E94D7000E945A018FEC97E00197F1F716
:1003000000C0000008952FEF81EE94E0215080405E
:100310009040E1F700C0000041E060E084E40E940A
:10032000670041E061E084E40E94670041E062E030
:1003300084E40E94670041E063E084E40E94670077
:1003400041E064E084E40E94670041E065E084E409
:100350000E94670041E066E084E40E94670041E09B
:1003600067E084E40E94670041E060E082E40E946C
:10037000670041E062E082E40E94670041E061E0E2
:1003800082E40E94670040E062E082E40E94D700BD
:1003900088E30E9471018FEC97E00197F1F700C0AC
:1003A00000008EE00E9471018FEC97E00197F1F759
:1003B00000C0000081E00E9471018FE19EE401977E
:1003C000F1F700C0000086E00E9471018FEC97E019
:1003D0000197F1F700C000000895682F84E40E949F
:1003E000470141E061E082E40E94D7000E945A0187
:1003F0008FEC97E00197F1F700C000000895CF93CC
:10040000DF93EC0103C00E94ED01219688818111E8
:10041000FACFDF91CF9108959FEF980F923070F44B
:10042000613170F4662371F0813019F42FE7260FE3
:100430000AC0823041F42FEB260F05C020E803C02C
:1004400020E801C020E8822F0E9471018FEC97E024
:100450000197F1F700C00000089541E060E083E4F7
:100460000E94670041E061E083E40E94670041E090
:1004700062E083E40E9467000E9449000E948301B9
:1004800080E690E00E94FF0180E00E945600909379
:1004900071008093700044EF51E0849F9001859F2C
:1004A000300D949F300D1124C9016FEF73E00E944D
:1004B0000703862F972F60936E0070936F008A302A
:1004C000910578F56DE081E00E940C028EE10E94BA
:1004D000ED0140916E0050916F009A01ADECBCECC3
:1004E0000E941B0396958795969587959695879577
:1004F0009C01220F331F880F991F880F991F880FA7
:10050000991F820F931F9A01281B390BC901805D27
:100510000E94ED018FED0E94ED0183E60E94ED0146
:10052000B3CF8436910508F0AFCF6DE081E00E9433
:100530000C0220916E0030916F00ADECBCEC0E947B
:100540001B03969587959695879596958795805DDB
:100550000E94ED0140916E0050916F009A01ADEC48
:10056000BCEC0E941B03969587959695879596956A
:1005700087959C01220F331F880F991F880F991FA1
:10058000880F991F820F931F9A01281B390BC901ED
:10059000805D0E94ED018FED0E94ED0183E60E94D7
:1005A000ED0180916E0090916F008531910530F4DE
:1005B00041E061E083E40E94D70066CF9C012F51A7
:1005C00031092331310530F441E060E083E40E94D9
:1005D000D7005ACFC29758F041E060E083E40E9410
:1005E000D70041E062E083E40E94D7004DCF40E0B5
:1005F00060E083E40E94D70040E061E083E40E9471
:10060000D70040E062E083E40E94D7003DCFAA1B00
:10061000BB1B51E107C0AA1FBB1FA617B70710F0ED
:10062000A61BB70B881F991F5A95A9F7809590951F
:10063000BC01CD010895A29FB001B39FC001A39F4B
:10064000700D811D1124911DB29F700D811D11240B
:08065000911D0895F894FFCFFD
:0E06580074656D70657261747572653D0000A9
:00000001FF
